:030000000209A74B
:0C09A700787FE4F6D8FD75810C0208A4EE
:0A09B3004C59434F20534F465400A7
:0608E200D2937F057E00A9
:1008E800E4FDFCC3ED9FEE6480F8EC64809850153D
:1008F800E4FBFA0BBB00010AEB64734A70F50DBD0B
:0509080000010C80DE7F
:01090D0022C7
:10095700A907E954F0F590C2921208E2C293E9C4DC
:0E09670054F0F590C292D2931208E8C2932287
:10097500A907E954F0F590D2921208E2C293E9C4AE
:0E09850054F0F590D292D2931208E8C2932259
:10090E008B088A09890AAB08AA09A90A120800608D
:10091E0013050AE50A7002050914F9120800FF1200
:05092E00097580E222C2
:100993007F021209577F281209577F061209577FD2
:0409A3000C020957E2
:100933008F828E837C007D0A120819EF2430FF1208
:100943000975AE83AF827C007D0A120819ED24304D
:04095300FF02097521
:1008A400D2901209937F801209577BFF7A0979B39A
:1008B40012090E7FC0120957AF0CAE0B1209333068
:1008C4009008050CE50C7002050BD3E50C9463E568
:0E08D4000B6480948040DCE4F50BF50C80D5BD
:10080000BB010689828A83E0225002E722BBFE02F6
:09081000E32289828A83E4932229
:10081900C2D5EC30E709B2D5E4C39DFDE49CFCEEFA
:1008290030E715B2D5E4C39FFFE49EFE12084FC31B
:10083900E49DFDE49CFC800312084F30D507C3E416
:060849009FFFE49EFE2269
:10084F00BC000BBE0029EF8DF084FFADF022E4CC8D
:10085F00F875F008EF2FFFEE33FEEC33FCEE9DEC56
:10086F00984005FCEE9DFE0FD5F0E9E4CEFD22ED9C
:10087F00F8F5F0EE8420D21CFEADF075F008EF2FE6
:10088F00FFED33FD4007985006D5F0F222C398FDD7
:05089F000FD5F0EA2274
:00000001FF
